:100000000C9434000C943E000C943E000C943E0082
:100010000C943E000C943E000C943E000C943E0068
:100020000C943E000C943E000C943E000C943E0058
:100030000C943E000C943E000C943E000C943E0048
:100040000C943E000C943E000C943E000C943E0038
:100050000C943E000C943E000C943E000C943E0028
:100060000C943E000C943E0011241FBECFEFD8E04C
:10007000DEBFCDBF0E9467000C9497000C94000077
:1000800087E087B918B80895CF93DF931F92CDB753
:10009000DEB789834298419820E030E0898190E082
:1000A000022E02C0959587950A94E2F780FF0DC055
:1000B000409A429A42982F5F3F4F2830310571F79E
:1000C000419A0F90DF91CF9108954098F2CF0E940E
:1000D000400011E0C7E0D0E0812F0C2E01C0880F56
:1000E0000A94EAF70E9444008FE39DE023E08150E8
:1000F00090402040E1F700C00000219768F7C1E080
:10010000D0E0812F0C2E01C0880F0A94EAF70E94DC
:1001100044002FE38DE093E0215080409040E1F7D0
:1001200000C000002196C730D10559F7D3CFF8940D
:02013000FFCFFF
:00000001FF
