:100000000C942A000C9434000C9434000C943400AA
:100010000C9434000C9434000C9434000C94340090
:100020000C9434000C9434000C9434000C94340080
:100030000C9434000C9434000C9434000C94340070
:100040000C9434000C9434000C9434000C94340060
:100050000C94340011241FBECFE5D8E0DEBFCDBF25
:100060000E9436000C944B000C9400008FEF84BB70
:1000700015BA85E886B982E087B9369A3699FECFF7
:1000800084B195B18115924018F49698979AF5CF5E
:0A009000AE9AAF98F2CFF894FFCFBC
:00000001FF
